S0140000504353455F454E434F4445522E7372656386
S1130000F82100202D010000290100002901000031
S113001000000000000000000000000000000000DC
S113002000000000000000000000000029010000A2
S11300300000000000000000290100002901000068
S11300402901000029010000290100002901000004
S113005029010000290100002901000029010000F4
S113006029010000290100002901000029010000E4
S1130070590D000029010000290100002901000098
S113008029010000290100002901000029010000C4
S113009029010000290100002901000029010000B4
S11300A029010000290100002901000029010000A4
S11300B029010000290100002901000010B5064CA7
S11300C02378002B07D1054B002B02D0044800E015
S11300D000BF0123237010BD700000200000000049
S11300E0681F0000084B10B5002B03D007490848CF
S11300F000E000BF07480368002B00D110BD064B89
S1130100002BFBD09847F9E70000000074000020A2
S1130110681F0000681F00000000000010B5014BBC
S1130120984710BD25030000FEE7000010B5104AF3
S1130130104B9A4209D00F4B0D4A03E01168196025
S1130140043304320C498B42F8D30C4B02E00022F6
S11301501A6004330A4A9342F9D30A4AFF210A4B2C
S11301608B439360094B9847094B9847FEE7C04679
S1130170681F0000000000207000002070000020B4
S1130180F401002000ED00E0000000002D14000048
S1130190D90F0000F0B5C64600B5C022D2058023B1
S11301A05B00536193608223DB0526499962C02179
S11301B009068C4699624820195C0127B943012637
S11301C03143C9B219543421585C0F25A843032480
S11301D0A04644462043C0B2585480208000506159
S11301E09060194898626046986249208446185C79
S11301F0B8433043C0B264461855585C3A3C20407A
S11302003024A44664462043C0B258548021C90017
S113021051600E4A9A620E4A9A624A22995C0420FC
S113022081439954995CB9433143C9B299543521F6
S11302305A5CAA4340460243D2B25A5404BC904684
S1130240F0BDC0460001004000020040000402402E
S1130250000002C0054B4022D4215A500C395A5098
S1130260034AD369C0390B43D3617047001C004073
S113027000080040054B4022D8215A5010395A50EA
S1130280034AD369B8390B43D3617047001C00405B
S11302900008004030B58223DB055622995C012515
S11302A0A94301242143C9B299543B20195C473A1C
S11302B0914302221143C9B2195457215A5CAA43EB
S11302C02243D2B25A541A5C48390A4020210A43C4
S11302D0D2B21A5430BD000010B582B0064B984714
S11302E0002300931033054A05490648064CA047ED
S11302F0064B984702B010BD750200008C00002028
S113030000100042A0010020CD050000950200006D
S113031010B50248024B984710BDC04610E000E0FB
S11303209D03000010B50F4B9847C023DB058022C6
S113033012019A619A608223DB050B4A9A62C022F9
S113034012069A624B215A5C012082435A54074B8D
S11303509847074B9847074B9847074B9847074BD5
S1130360984710BDD5080000000800405502000061
S11303706D0D000095010000D9020000110300007A
S1130380EFF31083036072B6BFF35F8F7047BFF360
S11303905F8F036883F310887047000010B5024B29
S11303A01860024B984710BD9C000020610E0000AD
S11303B010B5044B1C68044B984701002000034B04
S11303C0984710BD9C000020B10800006D0E00008D
S11303D010B5044B1C68044B984701002000034BE4
S11303E0984710BD9C000020C90800006D0E000055
S11303F070B504000D00160000280ED000290AD0A4
S1130400012034220649074B98472368320029000B
S11304102000984770BD0020F3E70020F1E7C046B4
S1130420B81C00008907000070B504000D00160018
S113043000280ED000290AD001203D220649074B8E
S113044098476368320029002000984770BD002057
S1130450F3E70020F1E7C046B81C0000890700005C
S113046010B5083800230363436A002B00D0984773
S113047010BD10B5083800230363C36A002B00D0F5
S1130480984710BD10B504002C30044B9847236ADC
S1130490083C002B01D02000984710BD290800001B
S11304A070B504000E00150000281DD000291DD0D1
S11304B0002A1DD100203C22FF321049104B9847DE
S11304C04423E25A0833E35A9A4213D1A6644C23D4
S11304D0E5520022083BE252433B236320000830EC
S11304E0084B9847280070BD0020E4E70020E2E7AD
S11304F00120E0E71C204042F5E7C046CC1C000088
S113050089070000CF0C000070B504000200083A0F
S11305104423D35A4C21525A93420DD00200016C09
S1130520083A5D1C44201552C95C2000044B9847CE
S11305302000044B984770BD034B9847FBE7C04627
S1130540C70C0000CF0C0000D70C0000F0B585B03C
S113055004000D001600002817D0002917D0002A27
S113056017D10020AC2252001249134B984703A81C
S1130570124B9847343420000194114B98470700DC
S113058003A8104B984700240BE00020EAE7002062
S1130590E8E70120E6E70134A4B2691801980A4BA0
S11305A098472100A74201D9B442F4D3200005B0F2
S11305B0F0BDC046CC1C0000890700008103000088
S11305C0690800008F030000DD070000F8B504008F
S11305D00D0016001F00002826D0002926D0002A6E
S11305E026D0002B26D100203A221549154B9847D6
S11305F0200034303A003100134B984700281BD1B7
S1130600200008302900114B984700280BD1104BCB
S11306106360104B2360104BA360104BE360104BDE
S11306202361104B6361F8BD0020DDE70020DBE7A8
S11306300020D9E70120D7E70D204042F3E7C04668
S1130640CC1C00008907000091070000290C000061
S11306504D050000A1040000090500008504000008
S1130660610400007304000010B50400431E9841A7
S1130670C0B261220449054B984720000830044B5E
S11306809847002010BDC046CC1C0000890700001C
S1130690B50C000070B504000D0000280BD0002933
S11306A007D0012077220549054B98472C6000208C
S11306B070BD0020F6E70020F4E7C046CC1C000023
S11306C08907000070B505000E001400431E984110
S11306D0C0B283221649174B9847012E11D0002E21
S11306E004D0022E18D00D20404209E0AC62621EF4
S11306F09441E2B22800083001210F4B98470020B2
S113070070BD6C62621E9441E2B22800083002217E
S1130710094B98470020F3E7EC62621E9441E2B271
S1130720280008300321044B98470020E8E7C0461E
S1130730CC1C000089070000E10C000070B5040027
S11307400D00431E9841C0B20C22FF320B490C4BE2
S11307509847002D09D0236B2B604423E35AAB80C8
S113076020003430074B9847E880236BDB0701D423
S1130770002070BD04204042FBE7C046CC1C0000B2
S11307808907000069080000002800D100BE7047F6
S113079070B504000E001500002812D0002912D0F4
S11307A0002A12D1002028220A490B4B98476B1EBD
S11307B02B420CD163600023A360E3602660002019
S11307C070BD0020EFE70020EDE70120EBE70D20EE
S11307D04042F5E7EC1C00008907000070B50400F6
S11307E00D00002816D0002912D0012040220C4907
S11307F00C4B9847A368E2689A420DD06268134094
S11308002268D35C2B70A3680133A360002070BD01
S11308100020EBE70020E9E70A204042F7E7C04662
S1130820EC1C00008907000070B504000D00431E95
S11308309841C0B251220A490A4B98476368E2685A
S113084013402268D554E368A2689A1A61688A4200
S113085001D9591AA1600133E360002070BDC0467C
S1130860EC1C00008907000010B50400431E9841E9
S1130870C0B267220349044B9847E068A368C01AD2
S113088010BDC046EC1C0000890700000300064AA6
S11308901268002A04D0044A1068C3181360704711
S11308A00249014A1160F6E7A0000020F821002067
S11308B010B503011B1A180101380A21014B98478E
S11308C0013010BD5909000003011B1A1A016420EC
S11308D05043704710B5084B5A685A60074B984705
S11308E0074B9847074B9847074B9847FF20074B00
S11308F09847074B984710BD00400041FD09000090
S1130900190A0000F1090000550A0000CD09000091
S1130910150900009022D205137802218B4313702D
S1130920704710B582B0EFF31083019372B6902331
S1130930DB051A78012422431A709860D960902349
S1130940DB051B79DB07FAD49023DB051869019BCF
S113095083F3108802B010BD10B582B0EFF310839A
S1130960019372B69023DB051A780124A2431A700E
S11309709860D9609023DB051B79DB07FAD49023B8
S1130980DB051869019B83F3108802B010BD0000D9
S113099010B582B0EFF31083019372B69023DB0598
S11309A01A780124A2431A709860D9609023DB0559
S11309B01B79DB07FAD4044B18685968019B83F34D
S11309C0108802B010BDC04610000048C30707D508
S11309D0044A054B1A62044B5A68044B1A42FAD172
S11309E07047C04606010100001C0040FD070000DE
S11309F00122014B1A71704700080040054AD3696F
S1130A001B0A1B02F82149010B40D3610123136126
S1130A107047C046001400400D4B02221A75013A7B
S1130A205A750B4B9B695B07FBD4094B9B695B07AE
S1130A30FBD40722064B9A75054BDB68DB06FBD516
S1130A40034A137D802149420B43DBB2137570477F
S1130A500010004070470000024B9C466044800A2E
S1130A60C0B2704700FCFFBD10B58469237EDB076C
S1130A7002D5A37DDB070FD4237E9B0702D5A37D7C
S1130A809B070ED4237E5B0715D5628B37231A424E
S1130A900CD04833638310BD012323750368984742
S1130AA0F9E70223237583689847F4E74368218DA7
S1130AB0C9B29847EFE7237EDB09ECD08023237685
S1130AC0C3689847638B9BB26383E4E7034B984204
S1130AD000D07047024B1960FBE7C046001000428B
S1130AE0A400002010B5024B98470930C0B210BDD5
S1130AF0590A000010B50B4B98470200002000284B
S1130B0006D0094A09490020094B9847002010BD26
S1130B1083001B189900074BCB5C9A42F7D0013035
S1130B20C0B2ECE7590A00005E020000601D00003C
S1130B3089070000101D000070B50400384B984769
S1130B40E369DB071DD483001B189A00354B9B18FF
S1130B505A681C231A40E3699B07FCD123689B074E
S1130B6009D5236802218B432360E3699B07FCD1E9
S1130B70E3699B07FCD4012313432360E3699B07C8
S1130B80FCD1E369DB07FCD483001B189A00254BD6
S1130B909B185B682360E3699B07FCD183001B18E7
S1130BA09A00204B9B189B686360E3695B07FCD148
S1130BB083001B189A001B4B9B185B689A040BD488
S1130BC0C022D201134207D183001B189A00154B8F
S1130BD09B189B89A38115E083001B189A00114977
S1130BE089188A89A389D204D20C5B0B5B03134353
S1130BF0A3818B7B07221A40A3895203DB04DB0CFD
S1130C001343A381074A83001D18A9000D0051183E
S1130C10C97BA1735219127C3023E254002070BDA9
S1130C20F50A0000101D000070B506000C00431EFC
S1130C309841C0B2C4221949194B98472000194B56
S1130C409847051E01D0280070BDB4613100200012
S1130C50154B98472000154B984743B2002B0ADBED
S1130C601F21014001228A408021114C6250BFF3B0
S1130C704F8FBFF36F8F002B07DB1F210140012231
S1130C808A40C02149000A4C6250002BDBDB1F2341
S1130C9018401E3B8340064A1360D4E7601D0000E1
S1130CA089070000390B0000CD0A0000E50A0000A6
S1130CB000E100E08269136802210B431360D369E9
S1130CC09B07FCD17047836989B219857047836992
S1130CD001229A757047836902229A757047000051
S1130CE070B504000D001600431E9841C0B2174AA7
S1130CF01749184B9847002D0BD0022D09D0012D10
S1130D0018D0032D0FD1A369002E1CD080229A7510
S1130D1009E0A369002E07D101221A75A369002EE8
S1130D2005D102221A7570BD01229A75F6E70222D6
S1130D309A75F8E7A369002E02D104221A75F2E726
S1130D4004229A75EFE780221A75ECE71E02000070
S1130D50601D00008907000010B5024B1868024BA3
S1130D60984710BDA4000020690A00002A4BDB69E3
S1130D70DB071BD4284BDB699B07FBD1264B1B6885
S1130D809B070CD5244A136802218B431360224B22
S1130D90DB699B07FBD1204BDB699B07FBD40D224E
S1130DA01D4B1A601C4BDB699B07FBD11A4BDB699B
S1130DB0DB07FBD4194A184B1A60174BDB699B07F6
S1130DC0FBD1154A136816490B401360124BDB69BB
S1130DD05B07FBD110490B68124A1A4080239B031E
S1130DE013430B600C4BDB695B07FBD1802292023F
S1130DF0094B5A60084BDB695B07FBD1064A0023A9
S1130E001373136802218B430B431360024BDB699A
S1130E109B07FBD100207047000C00420C0000101F
S1130E20FFFFFCFFFFFFCFFF074BDB695B0702D02F
S1130E30042040427047044B9862034B1B7E5B07BF
S1130E40FBD5014B986AF5E7000C0042024B034ABC
S1130E505A6005221A60704710E000E0FFFFFF00AF
S1130E6010B5014B984710BD4D0E0000080E0BE065
S1130E700B4B0C4858609860094B1B68DB03FBD58F
S1130E80094B9C4661441000421ED2B20028EFD1A7
S1130E90034B59609960024B1B68DB03FBD5704719
S1130EA010E000E0FFFFFF00010000FF10B5224B3F
S1130EB0984705280CD88000204B1B589F46204B90
S1130EC0204A13CA13C3190013680B6013790B71FA
S1130ED014211B481C4B984764201C4B984710BD99
S1130EE0174B1B4A13CA13C3190013680B6093886A
S1130EF08B8093798B71EBE7114B164A13CA13C39A
S1130F00190013680B6093888B8093798B71DFE7EA
S1130F100B4B114A13CA13C3190013680B6093884F
S1130F208B80D5E7064B0D4A13CA13C31900136807
S1130F300B6013790B71CBE7411100007C1D00009D
S1130F40A8000020941D000011140000D10300002B
S1130F50A81D0000BC1D0000D01D0000E41D000001
S1130F6010B5154B9847012817D000280BD002283C
S1130F7018D003281BD00C211048114B984764202B
S1130F80104B984710BD0D4B0F4A03CA03C31900F9
S1130F9013880B8093788B70EDE7084A0B4B13CBC7
S1130FA013C2E8E7054A0A4B13CB13C2E3E7034A2B
S1130FB0084B13CB13C2DEE785110000A800002004
S1130FC011140000D1030000F81D0000041E0000ED
S1130FD0101E00001C1E0000F8B53D4B98473D4B09
S1130FE098473D4B98473D4C3D483E4B98476423BA
S1130FF0E25E3D4920003D4FB847142120003C4E9D
S1131000B04764203B4DA847200066303A4B9847D0
S11310106623E25E39492000B8471A212000B04710
S11310206420A8472E48364B9847020035492000D3
S1131030B84716212000B0476420A847FA20800052
S1131040A8476822A35C0133DBB2A354092BCAD995
S1131050224C00226823E2542B4923000A0023CAAD
S113106023C303CA03C314212000214EB0476420C4
S1131070204DA847254B9847254B984720006A30B8
S1131080244B98476A23E25A23492000174FB84754
S113109013212000B0476420A84720006C301F4B68
S11310A098476C23E25C1E492000B8470B212000BE
S11310B0B0476420A8471B4923000A0083CA83C39E
S11310C003CA03C314212000B0476420A8478AE759
S11310D01D010000B513000029110000A800002024
S11310E00C01002009120000281E000089140000D1
S11310F011140000D1030000351200003C1E000052
S113110061120000541E00006C1E0000AD0E0000B1
S1131110610F0000DD110000801E0000B511000009
S1131120941E0000A01E000000B583B06B46991DFC
S11311300120024B9847002003B000BD911200002B
S113114010B582B06B469C1D0023238021000B4800
S11311500B4B984723881A0502D5022002B010BD14
S11311605A0501D50320F9E79A0501D50420F5E7CE
S1131170DB0501D40520F1E70020EFE7FC3F000088
S11311809112000010B582B06B469C1D0023238091
S113119021000120064B984723889A0706D4DB07D1
S11311A002D5022002B010BD0020FBE70120F9E7C0
S11311B09112000030B583B005006B469C1D0023DE
S11311C0238021000348044B984723782B7003B0F5
S11311D030BDC046FC3F00009112000030B583B022
S11311E005006B469C1D0023238021000448054B09
S11311F0984723889B049B0C2B8003B030BDC046CA
S1131200FD3F00009112000030B583B005006B462D
S11312109C1D0023238021000448054B9847238804
S11312209B049B0C2B8003B030BDC046FF3F0000E5
S11312309112000030B583B005006B469C1D00235D
S1131240238021000448054B984723889B049B0C6A
S11312502B8003B030BDC046FE3F00009112000059
S113126010B50022835EE12000015843A0218902C9
S1131270014B984780B210BD2309000003000020F1
S113128003E01818012210405B08002BF9D17047C5
S1131290F0B5C64600B50D0080221201C023DB055F
S11312A05A61040AC7B2274B5F7040221443E4B268
S11312B01C702000244EB04780463800B04780455B
S11312C004D080235B421C431E4B1C701D4C2078B1
S11312D01E4EB04720716078B0476071C026F60595
S11312E080273F01B7610120194B9847776100239C
S11312F06370403323704020134CA0470600002045
S1131300A047864202D0C0220E4B1A700D4C2078A2
S11313100E4EB04720716078B047C0B26071802231
S11313201201C023DB059A6123795A0606D41B02F5
S1131330C0182880002004BC9046F0BD0220404222
S1131340F9E7C046180100207D120000290E0000B4
S1131350B1030000034B1B78002B02D00022014B89
S11313601A7070472001002070B50C4C211D0C48E8
S11313700C4B98476389012B0FD9084C0A220A4960
S1131380E0680A4B9847012525702100103164223A
S1131390E068074B98477423E55470BD2001002092
S11313A0A00100203D07000000000020F103000020
S11313B02904000070B50D4C0D4A012120000D4D8B
S11313C0A8470D4A00212000A8470C4D29000C31E4
S11313D020000B4B984720000A4B98470C220A49DF
S11313E0E8680A4B984701232B7070BDA0010020C8
S11313F055130000C50600006913000020010020F9
S1131400950600006906000000000020F1030000BA
S113141010B58AB2034C0100E068034B98470123DE
S1131420237010BD20010020F103000070B50026D8
S11314300C4D0D4C641BA410A64209D1002600F0EB
S113144083FD0A4D0A4C641BA410A64205D170BD4D
S1131450B300EB5898470136EEE7B300EB589847D2
S11314600136F2E7541F0000541F0000541F00000F
S1131470581F0000002310B59A4200D110BDCC5C67
S1131480C4540133F8E700000EB410B59DB002A9AE
S1131490029008610B488224886048610120404220
S11314A01FABC881084804CBA400006801938C8159
S11314B000F0CCF80023029A13701DB010BC08BCD5
S11314C003B01847FFFFFF7F0C000020032370B513
S11314D0CD1C9D43083506000C2D1ED20C25A942B7
S11314E01DD8300000F06DFB254A14682100002946
S11314F019D1244C2368002B03D1300000F032FBB7
S113150020602900300000F02DFB431C2CD10C235B
S11315103000336000F056FB03E0002DDFDA0C23CB
S11315203360002070BD0B685B1B1AD40B2B03D9EE
S11315300B60CC18256003E08C420ED16368136005
S1131540300000F03FFB200007220B30231D9043A6
S1131550C31AE7D05A42E250E4E74B6863600C00D8
S1131560EEE70C004968C2E70323C41C9C43A04275
S1131570E0D0211A300000F0F5FA431CDAD1C6E7B6
S1131580980100209C010020F0B58E6885B007000A
S11315900C00039201939E4239D890238A89DB0080
S11315A01A4234D00325096923685B1A02936369DC
S11315B002985D43EB0F5D19019B6D1001331B18FD
S11315C0AB4200D91D00530532D529003800FFF77E
S11315D07DFF061E09D10C233B6040230120A28914
S11315E040421343A38105B0F0BD029A2169FFF77D
S11315F041FFA389144A1A4080231343A381029B09
S11316002661F61826606561019EED1AA560019BAE
S1131610B34200D21E0032000399206800F0BFFAE2
S1131620A36800209B1BA36023689E192660DAE749
S11316302A00380000F012FB061EE0D121693800B0
S113164000F0C2FAC7E7C0467FFBFFFFF0B59FB0CA
S1131650029005938B890F0016001B0611D50B69A8
S1131660002B0ED14021FFF731FF3860386100288C
S113167005D10C23029A013813601FB0F0BD40233A
S11316807B61002306AD6B6120336B761033AB7640
S113169034002378002B47D1A31B04930DD0A31B44
S11316A0320039000298FFF76FFF431C00D1B5E008
S11316B06A69049B944663446B612378002B00D1D0
S11316C0ACE00122002352426A6002A9543252184B
S11316D001342B60EB60AB601370AB65584E052290
S11316E02178300000F050FA621C002820D12968CB
S11316F0CB0604D5532302AE20309B1918700B0778
S113170004D553232B2002AE9B19187023782A2B5F
S113171016D000200A21099B2278303A092A55D98B
S1131720002815D0099313E0252BB5D00134B0E778
S11317300123801B8340296814000B432B60CDE7F1
S1131740059B181D1B680590002B39DB09931400B9
S113175023782E2B0BD16378621C2A2B3ED1059B58
S113176002341A1D1B680592002B34DB0793354E97
S113177021780322300000F007FA002806D0402325
S1131780801B83402A68013413432B60217806228E
S11317902D48661C297600F0F7F9002846D02B4B1B
S11317A0002B2FD12968059B0722C90528D59B1832
S11317B09343083305936B69039A9B186B6167E73E
S11317C05B42EB6002230B432B60C0E74B430134C5
S11317D09B180120A0E701235B42C7E70023140004
S11317E00A201A006B6021783039092903D9002BAB
S11317F0BDD00792BBE74243013452180123F2E7FC
S11318000733D5E705AB00933A00114B2900029842
S113181000E000BF0390039B0133CCD1BB890B983C
S11318205B0600D429E70120404226E705AB00937C
S11318303A00074B2900029800F07AF8EAE7C0461C
S1131840141F00001A1F00001E1F000000000000EB
S113185089150000F7B5150001938A680B6900909B
S11318600C00934200DA130022002B6043321278FA
S1131870002A01D001332B6023689B0602D52B6814
S113188002332B60062723681F4027D023004333ED
S11318901B785A1E93412268920630D42200019983
S11318A043320098089EB047431C25D00623206885
S11318B02A68E16803400025042B03D18D1AEB4309
S11318C0DB171D40A3682269934201DD9B1AED18C2
S11318D00027BD4220D1002010E00137E3682A68C8
S11318E09B1A9F42D2DA22000123193201990098EF
S11318F0089EB047431CF0D101204042FEBD302079
S1131900E1184331087021005A1C45310978A218A6
S1131910433202331170C1E7220001231A320199C4
S11319200098089EB047431CE6D00137D1E7000079
S1131930F0B58BB006920A004332079305900492E7
S11319400A7E0C00109B6E2A00D18FE017D8632A00
S11319502CD008D8002A00D199E0582A54D0260067
S11319604236327029E0642A01D0692AF7D121680D
S11319701A68080623D5111D1960156825E0732A15
S113198000D188E008D86F2A29D0702AE7D1202214
S113199009680A43226003E0752A20D0782ADED140
S11319A022007821453211706C4A30E00E001A682A
S11319B04236111D196013683370012379E049061A
S11319C0D9D5111D19600023D55E002D03DA2D230E
S11319D0049A6D421370624B0A2703932FE0206828
S11319E01968050603D5081D18600D6805E0400652
S11319F0F9D50D68081D1860ADB2594B082703933B
S1131A006F2A18D00A2716E045310A70544A039207
S1131A101A682168101D18601568080622D5CB07BE
S1131A2002D52023194321601027002D03D1202340
S1131A3022689A4322602300002243331A706368A9
S1131A40A360002B5CDB0422216891432160002DFC
S1131A5058D1049E002B64D02600039B42361B7889
S1131A6033705EE04806DAD5ADB2D8E709681A6883
S1131A70080605D5111D1960136862691A6006E02D
S1131A804906F7D5111D19601368A28A1A8000232C
S1131A90049E236154E01A68111D19601668002120
S1131AA06268300000F070F8002801D0801B60608C
S1131AB0636823610023049A137041E023693200B0
S1131AC006990598079DA847431C43D02368002521
S1131AD09B070FD4099BE06898423DDA18003BE06D
S1131AE022000123193206990598079EB047431C2A
S1131AF030D00135E368099A9B1A9D42F0DBE9E78F
S1131B00002DA9D0049E28003900FEF741FF039B55
S1131B10013E5B5C280033703900FEF71DFF051E93
S1131B20F1D1082F09D12368DB0706D56368226940
S1131B30934202DC3023013E3370049B9B1B2361E0
S1131B40079B09AA00932100069B0598FFF782FED4
S1131B50431CB3D1012040420BB0F0BD361F00003E
S1131B60251F0000002370B5064C05000800236003
S1131B70FEF78CFE431C03D12368002B00D02B609E
S1131B8070BDC046F0010020C9B28218904201D154
S1131B900020704703788B42FBD00130F6E710B584
S1131BA0884202D98B18984208D300239A4207D05E
S1131BB0CC5CC4540133F9E78B5C8354013AFBD207
S1131BC010BD70477047000070B50500002910D0A3
S1131BD00C1F2368002B00DAE4182800FFF7F1FF3C
S1131BE01D4A1368002B05D1636014602800FFF7B9
S1131BF0E9FF70BDA34209D9216860188342F3D17B
S1131C0018685B6841182160EEE713005A68002ADF
S1131C1001D0A242F9D919685818A0420BD1206802
S1131C200918581819608242E0D1106852684118A6
S1131C3019605A60DAE7A04202D90C232B60D5E779
S1131C4021686018824203D11068526841182160EB
S1131C5062605C60CAE7C04698010020F8B50700DE
S1131C600D001600002905D11100FFF72FFC040018
S1131C702000F8BD002A03D1FFF7A6FF3400F7E7E0
S1131C8000F012F82C008642F2D931003800FFF738
S1131C901DFC041EECD029003200FFF7EBFB2900E9
S1131CA03800FFF791FFE3E70B1F1B68181F002B99
S1131CB001DA0B58C01870472E2E2F68616C2F73F1
S1131CC072632F68616C5F696F2E63002E2E2F681C
S1131CD0616C2F7372632F68616C5F7573617274CA
S1131CE05F6173796E632E63000000002E2E2F68EF
S1131CF0616C2F7574696C732F7372632F757469BB
S1131D006C735F72696E676275666665722E6300D6
S1131D100300000004001041000003005CFE00000A
S1131D2000000000000000000000000000000000AF
S1131D30000000000000000000000000000000009F
S1131D40000000000000000000000000000000008F
S1131D50000000000000000000000000000000007F
S1131D602E2E2F68706C2F736572636F6D2F6870E1
S1131D706C5F736572636F6D2E630000BE0E0000AE
S1131D80D00E0000E00E0000F80E0000100F00005E
S1131D90240F00000A446961676E6F73746963738A
S1131DA03A204F4B000000000A446961676E6F736C
S1131DB0746963733A204D41474C00000A446961D9
S1131DC0676E6F73746963733A204D41474800002E
S1131DD00A446961676E6F73746963733A20434F91
S1131DE0460000000A446961676E6F737469637327
S1131DF03A204C46000000000A436F6D6D733A2090
S1131E004F4B00000A436F6D6D733A2050415200EE
S1131E100A436F6D6D733A20494E56000A436F6D45
S1131E206D733A20465241000A456E636F646572D1
S1131E3020506F733A202530356400000A456E63E4
S1131E406F6465722052415720506F733A202530D9
S1131E50356400000A456E636F64657220416E67E5
S1131E606C653A20253033750A0A00000A0A2A2ACA
S1131E702A2A2A5354415455532A2A2A2A2A0A0020
S1131E800A434F52444943204D41473A20253035B7
S1131E90640000000A4741494E3A2025303364006B
S1131EA00A2A2A2A454E44205354415455532A2A77
S1131EB02A0A0A00000000000000000000000000E0
S1131EC0000000000000000000000000000000000E
S1131ED000000000000000000000000000000000FE
S1131EE000000000000000000000000000000000EE
S1131EF000000000000000000000000000000000DE
S1131F0000000000000000000000000000000000CD
S1131F1000000000232D302B2000686C4C00656607
S1131F206745464700303132333435363738394126
S1131F30424344454600303132333435363738393C
S1131F406162636465660000F8B5C046F8BC08BC0D
S1131F509E467047E5000000F8B5C046F8BC08BCD2
S10B1F609E467047BD0000001D
S1131F680A52656365697665640A000010000020FA
S1131F7800000000D41E0000F41E0000B41E00007F
S1131F880000000000000000000000000000000045
S1131F980000000000000000000000000000000035
S1131FA80000000000000000000000000000000025
S1131FB80000000000000000000000000000000015
S1131FC80000000000000000000000000000000005
S9030000FC
